:020000040800F2
:1000000060F70020890200083F35000837350008F6
:100010003B350008F1180008993A0008000000007C
:100020000000000000000000000000004335000850
:10003000FF1A00080000000041350008453500089F
:10004000AD020008AD020008AD020008AD020008D4
:10005000AD020008AD020008AD020008AD020008C4
:10006000AD020008AD020008AD020008AD020008B4
:10007000AD020008AD020008AD020008AD020008A4
:10008000AD020008AD020008AD020008AD02000894
:10009000AD020008AD020008AD020008AD02000884
:1000A000AD020008AD020008AD020008AD02000874
:1000B000AD020008AD02000861350008AD0200087D
:1000C000AD020008AD020008AD020008AD02000854
:1000D000AD020008893A0008AD020008AD02000830
:1000E000AD020008AD020008AD020008AD02000834
:1000F000AD020008AD020008AD020008AD02000824
:10010000AD020008AD020008AD020008AD02000813
:10011000AD020008AD020008A5350008AD020008D8
:10012000AD02000821190008AD020008AD02000868
:10013000AD020008AD020008AD020008AD020008E3
:10014000AD020008AD020008AD020008AD020008D3
:10015000AD020008AD020008AD020008AD020008C3
:10016000AD020008AD020008AD020008AD020008B3
:10017000AD020008AD0200081119000800000000DF
:10018000AD020008AD02000800F002F800F06DF8C2
:100190000AA090E8000C82448344AAF10107DA45E2
:1001A00001D100F062F8AFF2090EBAE80F0013F0C7
:1001B000010F18BFFB1A43F001031847F88A01002A
:1001C000188B01000A444FF0000C10F8013B13F0AB
:1001D000070408BF10F8014B1D1108BF10F8015BA0
:1001E000641E05D010F8016B641E01F8016BF9D193
:1001F00013F0080F1EBF10F8014BAD1C0C1B09D1EA
:100200006D1E58BF01F801CBFAD505E014F8016B5B
:1002100001F8016B6D1EF9D59142D6D370470000ED
:100220000023002400250026103A28BF78C1FBD8FF
:10023000520728BF30C148BF0B607047642900F0E7
:100240003181752900F02E81782900F067816329BA
:1002500000F06983732900F06E83002070471FB59A
:100260000FF0E0FE1FBD10B510BD00F087FB11467A
:10027000FFF7F5FF0BF002FD00F0A5FB03B4FFF75D
:10028000F2FF03BC03F0E7FF0C48016841F4700182
:1002900001600B4880470B480047FEE7FEE7FEE79A
:1002A000FEE7FEE7FEE7FEE7FEE7FEE7FEE700000B
:1002B00005480649044A064B7047000088ED00E0F7
:1002C0004D3500088901000860F3002060F7002028
:1002D00060F30020704753EA020C00F069802DE9BA
:1002E000F04B4FF00006002B1FBFB3FA83F503FA63
:1002F00005F424FA05F65E4012BF1643B2FA82F501
:1003000002FA05F4C5F120051EBF22FA05FC44EAF5
:100310000C04203556EA044C4FEA144418BF641C00
:100320004FF000084FF00009904271EB030C39D3F5
:10033000002919BFB1FA81F701FA07F6B0FA80F780
:1003400000FA07F6C7F120071EBF20FA07FC46EAAD
:100350000C062037B6FBF4FCA7EB0507103F07F0AF
:100360001F0BCBF120060CFA0BFB2CFA06F644BF50
:10037000B3460026202FA4BF5E464FF0000B5BEA79
:10038000060C08BF4FF0010B19EB0B09ABFB027C0D
:1003900048EB0608C01B06FB02CC0BFB03CC71EB41
:1003A0000C01C1E70B46024641464846BDE8F08BCA
:1003B00013B54FF000004FF00001AFF30080BDE82F
:1003C0001C4070470FB4044910B503AA029800F00E
:1003D000B7FA10BC5DF814FB1C0000200FB41CB56C
:1003E000074B06AA7B4469460090059800F079FA0D
:1003F0000020694600F088FA1CBC5DF814FB000080
:100400002105000070B5044685690068C10601D564
:10041000302600E02026C00707D070BDD4E90121B6
:1004200030469047206A401C20626D1EF6D570BD94
:1004300070B5044685690078C00707D170BDD4E95E
:10044000012120209047206A401C20626D1EF6D5B5
:1004500070BD70B50C460546012A05D02878800687
:1004600000D5EA69002302E0012305E05B1C93420A
:1004700002D2E05C0028F9D1A869E618C01AA86188
:10048000286A184428622846FFF7BCFF04E0D5E933
:10049000012114F8010B9047B442F8D32846FFF726
:1004A000C7FF70BD2DE9F04106460024106875298C
:1004B000314616A510D0AFF30080002802DA404282
:1004C00013A507E031688A0701D512A502E04907A4
:1004D00004D511A5012401E0AFF3008000210A2218
:1004E00006F1240709E0B0FBF2FCB0FBF2F302FBDB
:1004F0001C00303078541846491C0028F3D123469C
:100500002A463046BDE8F04100F08CB900000000FA
:100510002D0000002B0000002000000070B50446F4
:100520000D4621461068AFF300802188090502D5E9
:100530000F4A7A4402E00E4A7A440E32002104F156
:10054000240305E000F00F060009965D5E54491C87
:100550000028F7D120780023000704D5702D02D0A1
:1005600009B1022311322046BDE8704000F05AB9AB
:100570009E8201002DE9F05F894604464FF0000A93
:10058000DFF874B1FB44C0F820A02046E16888473A
:10059000002874D0252806D0D4E901219047206A8C
:1005A000401C2062F1E700265F462046E16888474C
:1005B0002028054607DB312D05D2781910F8200CCC
:1005C00008B10643F1E7B00701D526F00406C4F8E8
:1005D0001CA00027C4F818A02A2D09D0284603F033
:1005E0001FFC38B304EB8708303DC8F8185019E0F9
:1005F00059F8041B204604EB87029161E1688847A3
:10060000012F054618D1E069002820DA26F02006DF
:100610001DE0D8F8180000EB800005EB40003038F2
:10062000C8F818002046E1688847054603F0F8FB43
:100630000028EED1012F0AD02E2D08D12046E168E6
:1006400088477F1C0546022F46F02006C4DBA069C0
:10065000002803DA404246F00106A061F00701D00D
:1006600026F010066C2D0BD0682D09D04C2D39D0FA
:100670006A2D35D0742D35D07A2D33D016E038E080
:10068000E1682F4620468847B842054609D16C2FBD
:1006900026D04FF48060E16806432046884705462F
:1006A00004E06C2F1AD04FF4807006430DB3A5F10F
:1006B0004100192802D8203546F400664A462946EA
:1006C000204626604E46FFF7B9FD80B101280BD0C9
:1006D000F61D26F0070000F1080956E74020E4E780
:1006E0008020D8E70020D6E706F104094DE7284628
:1006F00052E7206ABDE8F09F7482010040EA0103DE
:1007000010B59B070FD1042A0DD310C808C9121FBA
:100710009C42F8D020BA19BA884201D9012010BDF4
:100720004FF0FF3010BD1AB1D30703D0521C07E0C1
:10073000002010BD10F8013B11F8014B1B1B07D125
:1007400010F8013B11F8014B1B1B01D1921EF1D196
:10075000184610BD10B5203AC0F00B80B1E8185013
:10076000203AA0E81850B1E81850A0E81850BFF49B
:10077000F5AF5FEA027C24BFB1E81850A0E818503A
:1007800044BF18C918C0BDE810405FEA827C24BF8E
:1007900051F8043B40F8043B08BF7047D20728BF1C
:1007A00031F8023B48BF11F8012B28BF20F8023B6B
:1007B00048BF00F8012B70474FF0000200B5134608
:1007C00094469646203922BFA0E80C50A0E80C5071
:1007D000B1F12001BFF4F7AF090728BFA0E80C5022
:1007E00048BF0CC05DF804EB890028BF40F8042B1B
:1007F00008BF704748BF20F8022B11F0804F18BF88
:1008000000F8012B7047704770477047704710B56C
:1008100000F0ACF8006810BD10B5044600F0A6F872
:10082000046010BD2DE9F0470D46994692460446F6
:1008300000F124080168880604D5E06921F0100160
:10084000216000E00120A84201DD471B00E00027F5
:10085000A1697A1902EB0900081AA0612078C00684
:1008600002D42046FFF7CEFD002608E0D4E901219E
:100870001AF806009047206A401C761C20624E45FC
:10088000F4DB2078C0060AD52046FFF7BBFD06E062
:10089000D4E9012130209047206A401C2062381E94
:1008A000A7F10107F4DC07E0D4E9012118F80500FD
:1008B0009047206A401C2062281EA5F10105F3DC48
:1008C0002046FFF7B5FD2078000602D50220BDE8DE
:1008D000F0870120FBE7000001694A1C02610878EB
:1008E000704700B58FB0CDE9013100210591054970
:1008F0007944CDE9031011466846FFF73BFE0FB07F
:1009000000BD0000E5FFFFFF0A6802F8010B0A6066
:10091000704710B5436913B1AFF3008001E0FFF7F2
:1009200098FD012010BD127800F124010A70002208
:100930004A700122EDE711684FF0FF32E9E700004D
:10094000074B70B50D467B44FFF7CBFF04462846A6
:1009500000F010F810B14FF0FF3070BD204670BDB0
:10096000B37600000048704700F30020004870474D
:1009700000F30020007B00F0800070477546FFF711
:10098000F1FFAE4605006946534620F00700854654
:1009900018B020B5FFF78CFCBDE820404FF00006F2
:1009A0004FF000074FF000084FF0000B21F0070157
:1009B000AC46ACE8C009ACE8C009ACE8C009ACE89A
:1009C000C0098D46704710B50446AFF3008020463D
:1009D000BDE81040FFF752BC2DE9F04F86B09DF8FE
:1009E000587000910392002F059318BF0123109CAB
:1009F00004FB033304930F9D14BF2F460127019777
:100A0000BDF844305B0800F09F80DDF850B0139AC9
:100A100002EB83030293DDF848E0039F5FEA9E0840
:100A2000DDF800C057F8046B57F8043B03971A46EB
:100A3000314622D05CF81E705CF8049B50F804AB81
:100A400050F8045B2AFB09662AFB071125FB0933D2
:100A500025FB07225CF81E705CF8049B50F804AB81
:100A600050F8045B2AFB09662AFB071125FB0933B2
:100A700025FB0722B8F10108DCD10EF003078FB186
:100A80003CF91E803CF902AB30F9025B30F9029B65
:100A90000AFB056609FB0A3308FB051109FB08225E
:100AA000013FEDDCDDF84CA0159F3AF9024B57F8F9
:100AB00004CB5BF8045BC4F1150999EA040940F31F
:100AC000C8804FEA46064FEA410156FB05C651FB76
:100AD00005C146FA04F641FA04F13AF9024B57F817
:100AE00004CB5BF8045BC4F1150999EA040940F3EF
:100AF00099804FEA43034FEA420253FB05C352FB7E
:100B000005C243FA04F342FA04F206F30706DDF8DD
:100B10000490179CDDF810802670A04401F30701B3
:100B200088F8001003F3070304F8093002F3070202
:100B300008F8092004EB49021792CDF84CA0029C5A
:100B40001597A2457FF467AF119B13F0010354D0B2
:100B5000BDF848E0039BDDF800C019685FEA9E0716
:100B60000CEB4E040E4615D05CF81E505CF8048B5E
:100B700050F804AB50F8043B2AFB08662AFB051129
:100B80005CF81EA05CF8048B23FB086623FB0A11AB
:100B9000013FE9D11EF003070BD03CF81E303CF8B2
:100BA000029B30F902AB19FB0A66013F13FB0A11E5
:100BB000F3DCDDF84CA0159FBAF90040D7F800C06F
:100BC000DBF80050C4F1150999EA040958DD4FEA31
:100BD00046064FEA410156FB05C651FB05C146FAE0
:100BE00004F641FA04F106F30706179A049C1670FE
:100BF00001F307011155019B1A441199169B109C92
:100C000033B10F9B04F1020003FB1100104406E016
:100C1000A2EB0100059A04F1020402FB040006B0F5
:100C2000BDE8F08F002C42DD4FF0010909FA04F90C
:100C30004FEAA90953FB05934FEA430343FA04F330
:100C4000634452FB05924FEA420242FA04F26244C4
:100C50005BE7002C3CDD4FF0010909FA04F94FEA8B
:100C6000A90956FB05964FEA460646FA04F666447D
:100C700051FB05914FEA410141FA04F161442CE72F
:100C8000002C36DD4FF0010909FA04F94FEAA909F1
:100C900056FB05964FEA460646FA04F6664451FBB3
:100CA00005914FEA410141FA04F161449BE7C4F127
:100CB000010903FA09F303F31F0353FB15F302FAC7
:100CC00009F202F31F0252FB15F2634462441CE76F
:100CD000C4F1010906FA09F606F31F0656FB15F6DC
:100CE00001FA09F101F31F0151FB15F1664461445A
:100CF000F3E6C4F1010906FA09F606F31F0656FBEE
:100D000015F601FA09F101F31F0151FB15F16644D3
:100D1000614468E7000000000000000000000000DF
:100D20002DE9F04F99B014901391169212932998CF
:100D300000F00303032B0CBF01260026179603289F
:100D40000CBF01260026189610F00200259B0028F3
:100D500014BF18460120109026980CBF06460126A5
:100D60001196DDE92C04002C18BF20462C90269803
:100D7000012840F3BE814FEA4303299C14F0020F7F
:100D800001D14FF0020315934FF00008CDF83480E5
:100D9000DDF834B0239A02EB8B02B2F90030B2F9DD
:100DA0000240CDE90434229A02EBCB02D2E90012D0
:100DB000CDE902122B9A02EBCB02D2E90012CDE967
:100DC0000012002BCCBF00204FF0FF30152BC8BF06
:100DD0000120002CCCBF00214FF0FF31152CC8BFE3
:100DE0000121CDE906012D9B002B00F09782289B65
:100DF000002B40F0BB821A461846169901EBCB0136
:100E0000D1E9003403441444CDE90934129A2498FA
:100E100018992A9B00291CBF0332D218DDF8509084
:100E20000B92401000F044810F930E900B9B279F74
:100E3000119A2C9EDDE909CEE246F34613440C9349
:100E40005FEA271800F0948059F8075056F8040B11
:100E500056F8041B56F8042B56F8043B2FFA85F479
:100E60002FFA95F524FB00AA24FB02BB25FB01AA5F
:100E700025FB03BB59F8044B2FFA84F52FFA94F4A1
:100E800025FB00CC25FB02EE24FB01CC24FB03EE6A
:100E900059F8075056F8040B56F8041B56F8042B63
:100EA00056F8043B2FFA85F42FFA95F524FB00AA97
:100EB00024FB02BB25FB01AA25FB03BB59F8044B0D
:100EC0002FFA84F52FFA94F425FB00CC25FB02EED3
:100ED00024FB01CC24FB03EE59F8075056F8040B11
:100EE00056F8041B56F8042B56F8043B2FFA85F4E9
:100EF0002FFA95F524FB00AA24FB02BB25FB01AACF
:100F000025FB03BB59F8044B2FFA84F52FFA94F410
:100F100025FB00CC25FB02EE24FB01CC24FB03EED9
:100F200059F8075056F8040B56F8041B56F8042BD2
:100F300056F8043B2FFA85F42FFA95F524FB00AA06
:100F400024FB02BB25FB01AA25FB03BB59F8044B7C
:100F50002FFA84F52FFA94F425FB00CC25FB02EE42
:100F600024FB01CC24FB03EEB8F101083FF76CAF82
:100F700017F00F0046D0C7F38108B8F1000F26D054
:100F800059F8075056F8040B56F8041B56F8042B72
:100F900056F8043B2FFA85F42FFA95F524FB00AAA6
:100FA00024FB02BB25FB01AA25FB03BB59F8044B1C
:100FB0002FFA84F52FFA94F425FB00CC25FB02EEE2
:100FC00024FB01CC24FB03EEB8F10108D8DC17F0B8
:100FD0000308B8F1000F15D0279836F9023B36F90F
:100FE000025B99F9001013FB01CC15FB01EE19F916
:100FF000001013FB01AA15FB01BB09F10109B8F1AF
:101000000108EADC0B9D2E46179868B10F9A901ED6
:1010100009DC0C9CC2F1020204EB42020C922A9AF7
:10102000104405F102050F9000980299049A069B5E
:101030000C9F002B40F0C9804FEA4C0C4FEA4A0A43
:101040005CFB010C5AFB010A4CFA02FC4AFA02FA58
:101050000CF3070C0AF3070A86F800C087F800A013
:1010600001980399059A079BDDF84080002B40F01A
:10107000D4804FEA4E0E4FEA4B0B5EFB010E5BFB3A
:10108000010B4EFA02FE4BFA02FB0EF3070E0BF3B6
:10109000070B06F808E007F808B0119B279A05EB44
:1010A00043030B9391440E9B013B0E937FF4BEAE22
:1010B000CDF82090249B13F0010F40F0D680139BB5
:1010C000279A03EB42031393129B159A134412932E
:1010D0002D9B23B12C9B279A03EB82032C930D9A13
:1010E000269B4FEA630302F101020D9293423FF700
:1010F0004FAE269D15F0010560D0DDF8A880189D43
:10110000129E002D1CBF033646442499002955DD4C
:10111000CDF83C80169D269FA7F1010705EB870CB3
:10112000DCF800C0229B03EB870424682B9B03EBB5
:1011300087000068239B03EB4707B7F90070289AE4
:10114000002FCCBF4FF000094FF0FF39152FC8BF5B
:101150004FF00109149DDDF89CB0BBF1000FE6468D
:101160000CDDDDF84C8015F9013B18F901ABA3EB60
:1011700002030AFB03EEBBF1010BF4DCB9F1000F33
:1011800040F064814FEA4E0E5EFB040E4EFA07FEFD
:101190000EF3070E86F800E0299B13F0020F11D022
:1011A00013F0010F05D00F9B013B02D12A9B06F1E2
:1011B000020606F101060F930139CCDC002019B0BC
:1011C000BDE8F08F269B1E44F6E7013314D04FF0A4
:1011D000010303FA02F34FEAA3035CFB013C4FEA6D
:1011E0004C0C4CFA02FC84445AFB013A4FEA4A0A7E
:1011F0004AFA02FA82442BE7C2F101030CFA03FC1B
:101200000CF31F0C5CFB11FC0AFA03FA0AF31F0A29
:101210005AFB11FA844482441AE7013314D04FF088
:10122000010303FA02F34FEAA3035EFB013E4FEA18
:101230004E0E4EFA02FE86445BFB013B4FEA4B0B1F
:101240004BFA02FB834420E7C2F101030EFA03FECE
:101250000EF31F0E5EFB11FE0BFA03FB0BF31F0BCD
:101260005BFB11FB864483440FE7279FDDF820904A
:101270002C9EDDE909CE5FEAA70818D059F8044B87
:1012800056F8040B56F8041B56F8042B56F8043B8A
:101290002FFA84F52FFA94F425FB00CC25FB02EEFF
:1012A00024FB01CC24FB03EEB8F10108E6DC17F0C7
:1012B0000308B8F1000F0CD036F9023B36F9025B97
:1012C00019F9011B13FB01CC15FB01EEB8F1010864
:1012D000F2DC00980299049A069B109F0B9E3744FB
:1012E000002B40F099804FEA4C0C5CFB010C4CFA4F
:1012F00002FC0CF3070C86F800C001980399059ACC
:10130000079B002B66D14FEA4E0E5EFB010E4EFA94
:1013100002FE0EF3070E87F800E0D0E61398279F31
:1013200000EB07092C9B032F11DD4FEAA70650F8AD
:10133000041B59F8044B2FFA91F22FFA81F12FFA7E
:1013400094F82FFA84F4A3E81601013EEFDC17F0BD
:1013500003067FF74CAD10F9011B23F8021B19F9A6
:10136000011B23F8021B013EF5DC40E5279E2C9A69
:101370004FF000031846B11017D0B2E8801600FAFB
:1013800087F000FAA7F000FA89F000FAA9F003FA52
:101390008AF303FAAAF303FA8CF303FAACF30139E4
:1013A000EBDCC0F10000C3F1000316F003010BD029
:1013B000B2F90040A0EB0400B2F90240A3EB040331
:1013C000013902F10402F3DC289A02FB00F003FB6E
:1013D00002F212E5013311D04FF0010303FA02F3D8
:1013E0004FEAA3035EFB013E4FEA4E0E4EFA02FEA9
:1013F00086440EF3070E87F800E060E6C2F10103B1
:101400000EFA03FE0EF31F0E5EFB11FE86440EF372
:10141000070E87F800E052E601330DD04FF00103CC
:1014200003FA02F34FEAA3035CFB013C4FEA4C0CC6
:101430004CFA02FC84445CE7C2F101030CFA03FCA1
:101440000CF31F0C5CFB11FC844452E77B1C0DD099
:101450004FF0010303FA07F34FEAA3035EFB043ED8
:101460004FEA4E0E4EFA07FE864491E6C7F101039D
:101470000EFA03FE0EF31F0E5EFB14FE864487E693
:101480002DE9F04F99B000BF14901391169212936A
:101490004FF00008CDF83480DDF834B0239A02EB29
:1014A0008B02B2F90030B2F90240CDE90434229A3D
:1014B00002EBCB02D2E90012CDE902122B9A02EB29
:1014C000CB02D2E90012CDE9001213982C9B4FF009
:1014D0001006046C50F8041B2FFA91F22FFA81F1D8
:1014E0002FFA94F82FFA84F4A3E81601013EF0DCF9
:1014F000289B2C9A4FF0000318464FF01001B2E8D9
:10150000001700FA88F000FAA8F000FA89F000FA53
:10151000A9F003FA8AF303FAAAF303FA8CF303FAA5
:10152000ACF30139EBDCC0F10000C3F10003289AF1
:1015300002FB00F003FB02F2169901EBCB01D1E9AB
:10154000003403441444CDE90934129A4FF00503E2
:1015500002F103021A44DDF850900B924FF03E075F
:101560000F930B9B2C9EDDE909CEE246F34603F177
:1015700001030C934FF00208D9F8405056F8040BC1
:1015800056F8041B56F8042B56F8043B2FFA85F442
:101590002FFA95F524FB00AA24FB02BB25FB01AA28
:1015A00025FB03BB59F8044B2FFA84F52FFA94F46A
:1015B00025FB00CC25FB02EE24FB01CC24FB03EE33
:1015C000D9F8405056F8040B56F8041B56F8042B73
:1015D00056F8043B2FFA85F42FFA95F524FB00AA60
:1015E00024FB02BB25FB01AA25FB03BB59F8044BD6
:1015F0002FFA84F52FFA94F425FB00CC25FB02EE9C
:1016000024FB01CC24FB03EED9F8405056F8040B20
:1016100056F8041B56F8042B56F8043B2FFA85F4B1
:101620002FFA95F524FB00AA24FB02BB25FB01AA97
:1016300025FB03BB59F8044B2FFA84F52FFA94F4D9
:1016400025FB00CC25FB02EE24FB01CC24FB03EEA2
:10165000D9F8405056F8040B56F8041B56F8042BE2
:1016600056F8043B2FFA85F42FFA95F524FB00AACF
:1016700024FB02BB25FB01AA25FB03BB59F8044B45
:101680002FFA84F52FFA94F425FB00CC25FB02EE0B
:1016900024FB01CC24FB03EED9F8405056F8040B90
:1016A00056F8041B56F8042B56F8043B2FFA85F421
:1016B0002FFA95F524FB00AA24FB02BB25FB01AA07
:1016C00025FB03BB59F8044B2FFA84F52FFA94F449
:1016D00025FB00CC25FB02EE24FB01CC24FB03EE12
:1016E000D9F8405056F8040B56F8041B56F8042B52
:1016F00056F8043B2FFA85F42FFA95F524FB00AA3F
:1017000024FB02BB25FB01AA25FB03BB59F8044BB4
:101710002FFA84F52FFA94F425FB00CC25FB02EE7A
:1017200024FB01CC24FB03EED9F8405056F8040BFF
:1017300056F8041B56F8042B56F8043B2FFA85F490
:101740002FFA95F524FB00AA24FB02BB25FB01AA76
:1017500025FB03BB59F8044B2FFA84F52FFA94F4B8
:1017600025FB00CC25FB02EE24FB01CC24FB03EE81
:10177000D9F8405056F8040B56F8041B56F8042BC1
:1017800056F8043B2FFA85F42FFA95F524FB00AAAE
:1017900024FB02BB25FB01AA25FB03BB59F8044B24
:1017A0002FFA84F52FFA94F425FB00CC25FB02EEEA
:1017B00024FB01CC24FB03EEB8F101083FF7DCAEBB
:1017C0000B9D2E460F9A901E09DC0C9CC2F1020262
:1017D00004EB42020C9200F1050005F102050F90A6
:1017E00000980299049A0C9C4FEA4C0C4FEA4A0A62
:1017F0005CFB010C5AFB010A4CFA02FC4AFA02FAA1
:101800000CF3070C0AF3070A86F800C084F800A05E
:1018100001980399059A4FEA4E0E4FEA4B0B5EFB77
:10182000010E5BFB010B4EFA02FE4BFA02FB0EF3BC
:10183000070E0BF3070B86F8BDE084F8BDB005F189
:1018400002030B9309F14009013F7FF48AAECDF802
:101850002090DDF820902C9EDDE909CE4FF0100895
:1018600059F8044B56F8040B56F8041B56F8042B91
:1018700056F8043B2FFA84F52FFA94F425FB00CC9C
:1018800025FB02EE24FB01CC24FB03EEB8F101089A
:10189000E6DC00980299049A0B9E4FEA4C0C5CFB24
:1018A000010C4CFA02FC0CF3070C86F800C00198FE
:1018B0000399059A4FEA4E0E5EFB010E4EFA02FEA8
:1018C0000EF3070E86F8BDE0139B03F1800313931C
:1018D000129B159A03F5BD7312930D9A02F1010242
:1018E0000D92202AFFF6D8AD002019B0BDE8F08F88
:1018F00000BFFEE770B50546AC6BA06B406D0228DB
:1019000002D0012084F82500204600F06DF970BD5A
:1019100010B5024800F08EF910BD0000A06E002046
:1019200010B5284800682849884205D92648543807
:10193000006800F400601BE02248006823498842E8
:1019400005D921485838006800F4006010E01D48AF
:1019500000681E496039884205D91C48B83840687B
:1019600000F4006004E01948B838006800F4006032
:1019700030B3144800681449884204D9C814124985
:101980004C39086019E00F4800681049884204D9B2
:10199000C8140D49503908600FE00A4800680B4927
:1019A0006039884204D9C8140849B839C86004E0CD
:1019B0004FF400600549B8398860054800688047E1
:1019C00010BD0000E06E002058640240B860024084
:1019D000400000200146087810381823B0FBF3F2CD
:1019E0000848805CC865032A05D908686FF30900B8
:1019F000001D886503E008686FF309008865886D3D
:101A00007047000046000108014600208A6A8B6981
:101A1000CBB932B1012A0DD0022A03D0032A10D14A
:101A20000EE000BFCB6A03F08073B3F1807F00D17A
:101A3000012007E0CB6AB3F1C07F00D1012001E0B3
:101A400000E000BF34E08B69B3F5005F1AD132B11A
:101A5000012A07D0022A03D0032A11D10AE000BFCD
:101A600001200EE0CB6A03F08073B3F1807F00D1D8
:101A7000012006E0CB6AB3F1C07F00D1012000E075
:101A800000BF15E032B1012A05D0022A04D0032A92
:101A90000CD103E000BF00BF012008E0CB6A03F0D7
:101AA0008073B3F1807F00D1012000E000BF00BF50
:101AB000704710B5046863608468402C04D10468E2
:101AC000A2600468E16003E00468A1600468E26069
:101AD00010BD30B50468246824F4802405682C60A7
:101AE000046863608468402C04D10468A2600468C0
:101AF000E16003E00468A1600468E26030BD704703
:101B000070B504461D460023B5F5804F13D154F837
:101B100022300C480340D1E9000640EA06108E68E6
:101B200040EA06208E8940EA06408E69304303432E
:101B300044F8223003E06FF0704044F822000020A7
:101B400070BD00000000F0CF10B503460022086809
:101B500053F8202012480240D1E901042043CC6808
:101B600020430C6920434C6920438C692043CC6995
:101B700020430C6A20434C6A20438C6A2043CC6A81
:101B80002043CC6B20430C6B204302438868082819
:101B900001D142F04002086843F82020002010BD27
:101BA0008000F0FF30B503460024501C53F820405D
:101BB00004F04044D1E9000540EA05108D6840EA90
:101BC00005208D8940EA0545088A401E45EA0055F2
:101BD000087D801E45EA00608D6928430443501C3F
:101BE00043F82040002030BD7047000010B5044687
:101BF00001200D490968486106F028FA00BF4FF43A
:101C000080610A4800F0D2FB00BF09480078401C00
:101C10000749087004480068C06840F001000249A4
:101C20000968C86010BD0000A06E002000140240CA
:101C30003C00002070B504462068056905F00400EA
:101C400004280ED121684861E06B40F00200E06397
:101C5000042084F825002248A16B0865A06B00F0E1
:101C6000A5F905F0020002280ED121684861E06B59
:101C700040F00100E063042084F825001848A16BBF
:101C80000865A06B00F092F905F01000102804D14F
:101C900021684861204600F06EF805F00800082829
:101CA00004D121684861204600F0ECF805F00100FD
:101CB000A0B12068006800F00200022805D1206869
:101CC000C06820F01E002168C8602068C06820F04D
:101CD00001002168C8602046FFF788FF70BD000042
:101CE000F518000810B504460CB9012010BD94F891
:101CF000250040B9002084F82400204600F03CF87C
:101D0000204600F039F8022084F825002068006899
:101D100040F6F8718843216808606169606808438B
:101D2000E168084321690843A1680843A1690843A1
:101D3000216A0843216809680843216808606068CF
:101D400010280BD1217F607F41EA0021A07F41EA6A
:101D50000041E07F41EA0060216888612068C06836
:101D600040F01E002168C8600020E063012084F874
:101D700025000020BAE7704710B586B0044600BFC2
:101D8000002000903A48006840F00100384908609F
:101D90000846006800F00100009000BF00BF00BFCF
:101DA00000200090081F006840F00100091F086033
:101DB0000846006800F00100009000BF00BF00BFAF
:101DC000002000900846006840F0020008600846C5
:101DD000006800F00200009000BF00BF00BF0020BC
:101DE00000900846006840F004000860084600685B
:101DF00000F00400009000BF00BF00BF0020009072
:101E00000846006840F0100008600846006800F0CE
:101E10001000009000BF00BF5020019002200290EF
:101E200001200390032004900D20059001A9114882
:101E300000F0B2F9C020019001A90F4800F0ACF900
:101E40004FF43C60019001A90C4800F0A5F9602016
:101E5000019001A90A4800F09FF9022211464E2084
:101E600000F01BFB4E2000F008FB06B010BD000088
:101E700034380240000002400004024000080240E2
:101E80000010024070472DE9F04704460E46174601
:101E90001D46DDF820804FF00009A068802804D19D
:101EA000400060654FF0010929E000BF94F834005C
:101EB000012802D10220BDE8F087012084F8340017
:101EC00000BF94F83500012817D1022084F83500AE
:101ED0002068006840F4802021680860206805615F
:101EE00043463A4631462046FFF7E3FD2068006846
:101EF00040F001002168086001E04FF00209484607
:101F0000D9E770B50446A56D00F066FA064694F868
:101F10003500022808D08020606500BF002084F8CA
:101F2000340000BF012070BD2068006820F016005A
:101F3000216808602068406920F0800021684861BD
:101F4000206C08B9A06C28B12068006820F0080057
:101F5000216808602068006820F00100216808609E
:101F60000FE000F039FA801B05280AD920206065AF
:101F700000BF002084F8340000BF032084F835003F
:101F8000D1E72068006800F001000028E9D194F84A
:101F90005C103F208840A86000BF002084F8340017
:101FA00000BF012084F835000020BCE7014691F80D
:101FB0003500022803D080204865012070470520A5
:101FC00081F835000868006820F001000A68106098
:101FD0000020F3E770B504460CB9012070BD94F8F9
:101FE0003500022800D1F9E72068006820F00100E0
:101FF0002168086000202168086021684860216825
:1020000088602168C86021680861212021684861D2
:102010002046FFF7DFFC05460020E0632064606493
:10202000A064E064206594F85C103F208840A860BC
:102030000020606584F8350000BF84F8340000BFDC
:1020400000BFCBE72DE9F0410446002500F0C4F9BC
:10205000074614B90120BDE8F081606A00B100BFF5
:1020600000BF002084F8340000BF022084F835004F
:102070002068006820F00100216808600AE000F094
:10208000ABF9C01B052805D920206065032084F822
:102090003500E0E72068006800F001000028EED17C
:1020A0002068056821480540D4E901010843E1683A
:1020B00008432169084361690843A1690843E1694C
:1020C0000843216A08430543606A042803D1D4E920
:1020D0000B0108430543206805602068456925F029
:1020E0000705606A0543606A04280DD1A06A0543AC
:1020F000E06A48B12046FFF787FC28B140206065C0
:10210000012084F83500A6E7206845612046FFF7E6
:1021100061FC064694F85C103F208840B0600020C7
:102120006065012084F83500002094E73F8010F0BE
:102130002DE9F04104460D4616461F464FF00008B3
:1021400000BF94F83400012802D10220BDE8F081DC
:10215000012084F8340000BF94F83500012811D123
:10216000022084F83500002060653B46324629464F
:102170002046FFF7AEFC2068006840F001002168AF
:10218000086006E000BF002084F8340000BF4FF074
:1021900002084046DAE70000F8B502460B46002583
:1021A000002400200021DEE0012606FA01F51E6869
:1021B00006EA0504AC4275D11E7906F00306012E2D
:1021C00004D01E7906F00306022E13D190684F004A
:1021D0000326BE40B0434F00DE68BE4030439060EF
:1021E000506801268E40B0431E79C6F300168E401B
:1021F000304350601E7906F00306032E09D0D068E4
:102200004F000326BE40B0434F009E68BE4030439F
:10221000D0601E7906F00306022E13D1CF0802F11A
:10222000200656F827004E07F70E0F26BE40B04393
:102230004F07FF0E1E69BE403043CF0802F1200653
:1022400046F8270010684F000326BE40B0431E79B1
:1022500006F003064F00BE40304310605E6806F093
:102260008056B6F1805F7DD100BF00260096404EBB
:10227000366846F480463E4F3E603E46366806F479
:102280008046009600BF00BF3A4E8F0856F82700E0
:102290008E07370F0F26BE40B043374EB24202D1F1
:1022A000002624E05EE0354EB24201D101261EE058
:1022B000334EB24201D1022619E0324EB24201D170
:1022C000032614E0304EB24201D104260FE02F4E17
:1022D000B24201D105260AE02D4EB24201D10626B6
:1022E00005E02C4EB24201D1072600E008268F07F8
:1022F0003F0FBE4030431F4E8F0846F82700264E42
:102300003068A0435E6806F48036B6F5803F00D1A1
:102310002043214E3060361D3068A0435E6806F4CD
:102320000036B6F5003F00D120431B4E361D30600D
:10233000361D3068A0435E6806F48016B6F5801F2F
:1023400000D12043144E08363060361D3068A0435B
:102350005E6806F40016B6F5001F00D120430E4E4D
:102360000C363060491C1029FFF41EAFF8BD000088
:102370004438024008380140000002400004024096
:1023800000080240000C024000100240001402400D
:1023900000180240001C0240003C01400246136944
:1023A0000B400BB1012000E00020704710B54269DE
:1023B00021EA020302EA010443EA0443836110BDF7
:1023C0000AB1816101E00B04836170470148006834
:1023D000000C7047002004E00148006870470000CE
:1023E0002400002003480068034909780844014993
:1023F00008607047240000202C00002010B50A4817
:10240000006840F40070084908600846006840F41D
:1024100080600860052000F07FF80F2000F006F8CB
:1024200000F02AF8002010BD003C024070B50446C0
:102430000E4800784FF47A71B1FBF0F00C4909684E
:10244000B1FBF0F5284600F087FC08B1012070BD13
:10245000102C07D200222146501E00F01EF805481D
:10246000046001E00120F2E70020F0E72C000020EA
:10247000140000202800002070470146084600286C
:1024800009DB00F01F0301229A4043099B0003F17E
:10249000E023C3F8002100BF70472DE9F05F8046BC
:1024A0000D461646002701F00DFB074639462A4621
:1024B000334601F00700C0F1070ABAF1040F02D950
:1024C0004FF0040A01E0C0F1070AD14600F1040A06
:1024D000BAF1070F02D24FF0000A01E0A0F1030A9F
:1024E000D4464FF0010A0AFA09FAAAF1010A0AEAE7
:1024F000020A0AFA0CFA4FF0010B0BFA0CFBABF1D3
:10250000010B0BEA030B4AEA0B042146404601F09B
:10251000E1FABDE8F09F000000BF00F00702064BA3
:1025200019684FF6FF031940044B0B4343EA02219D
:10253000014B196000BF70470CED00E00000FA0588
:1025400070B504460D460CB9012070BD58480068AE
:1025500000F00700A84209D255490D7008460068EE
:1025600000F00700A84201D00120EEE7207800F03B
:10257000020002281DD1207800F00400042805D1B3
:102580004C48006840F4E0504A490860207800F068
:102590000800082805D14748006840F460404549D4
:1025A00008604448006820F0F000A16808434149F1
:1025B0000860207800F00100A8B36068012807D106
:1025C0003C4808380068C0F34040B8B90120BCE777
:1025D0006068022802D06068032807D135480838AF
:1025E0000068C0F3406048B90120AEE731480838C0
:1025F0000068C0F3400008B90120A6E72D48006834
:1026000020F00300616808432A490860FFF7E4FEF0
:10261000064609E0FFF7E0FE801B41F28831884260
:1026200002D9032091E707E02248006800F00C007F
:102630006168B0EB810FEDD11D48006800F0070024
:10264000A84209D91A490D700846006800F0070031
:10265000A84201D0012078E7207800F00400042887
:1026600007D11448006820F4E050E168084311499C
:102670000860207800F00800082808D10D4800689C
:1026800020F46040216940EAC1000A49086000F076
:102690003FF808490968C1F30311074A515CC84073
:1026A0000649086006480068FFF7C0FE00204CE7B6
:1026B000003C0240083802402E00010814000020AF
:1026C0002800002001480068704700001400002026
:1026D00000B5FFF7F7FF04490968C1F38221034AF7
:1026E000515CC84000BD0000083802403E000108AF
:1026F00000B5FFF7E7FF04490968C1F34231034A17
:10270000515CC84000BD0000083802403E0001088E
:102710002DE9F047002400250026A1462548006841
:1027200000F00C0020B1042805D008283AD105E0BB
:10273000DFF8849039E0DFF8849036E01D48001F10
:10274000006800F03F041B48001F006800F4800090
:1027500078B11A481749091F0968C1F38811A0FB0D
:1027600001700146224600233846FDF7B4FD0546B8
:102770000EE011480F49091F0968C1F38811A0FB39
:1027800001700146224600233846FDF7A4FD0546A8
:102790000848001F0068C0F30140401C4600B5FB1C
:1027A000F6F902E0DFF8109000BF00BF4846BDE830
:1027B000F0870000083802400024F40000127A007C
:1027C000F8B504460CB90120F8BD207800F00100EE
:1027D000002874D0F948006800F00C0004280DD0DF
:1027E000F648006800F00C00082813D1F348001FD9
:1027F000006800F48000B0F5800F0BD1EF48083876
:102800000068C0F34040002859D06068002856D1C5
:102810000120D9E700BF6068B0F5803F08D1E748E4
:102820000838006840F48030E449083908601EE048
:102830006068B0F5A02F0DD1E0480838006840F47A
:102840008020DE49083908600846006840F480307E
:1028500008600CE0D9480838006820F48030D74977
:10286000083908600846006820F48020086000BF2E
:10287000606890B1FFF7B0FD054606E0FFF7ACFDDC
:10288000401B642801D903209EE7CC480838006823
:10289000C0F340400028F1D011E0FFF79DFD054650
:1028A00006E0FFF799FD401B642801D903208BE760
:1028B000C24808380068C0F340400028F1D12078B1
:1028C00000F0020002285FD1BC48006800F00C0054
:1028D00058B1BA48006800F00C0008281CD1B7486D
:1028E000001F006800F48000B0B9B44808380068E0
:1028F000C0F3400020B1E068012801D0012063E767
:10290000AE480838006820F0F800216940EAC100AC
:10291000AA490839086037E0E06800B30120A849F7
:102920000860FFF759FD054606E0FFF755FD401B1F
:10293000022801D9032047E7A04808380068C0F3FF
:1029400040000028F1D09D480838006820F0F800C9
:10295000216940EAC10099490839086014E0002063
:1029600097490860FFF738FD054606E0FFF734FD9C
:10297000401B022801D9032026E790480838006848
:10298000C0F340000028F1D1207800F008000828AA
:102990002CD16069A8B101208A490860FFF71CFDAD
:1029A000054606E0FFF718FD401B022801D9032069
:1029B0000AE782486C300068C0F340000028F1D07C
:1029C00014E000207F490860FFF706FD054606E099
:1029D000FFF702FD401B022801D90320F4E67748E7
:1029E0006C300068C0F340000028F1D1207800F07E
:1029F0000400042870D1002770483830006800F0C7
:102A0000805090B900BF002000906C4838300068BA
:102A100040F080506949383108600846006800F08D
:102A20008050009000BF00BF01276748006800F495
:102A30008070B0B96448006840F4807062490860F2
:102A4000FFF7CAFC054606E0FFF7C6FC401B02285C
:102A500001D90320B8E65C48006800F480700028C3
:102A6000F2D000BFA068012808D15448683000683F
:102A700040F001005149683108601DE0A068052858
:102A80000DD14E486830006840F004004B49683171
:102A900008600846006840F0010008600CE0474804
:102AA0006830006820F00100444968310860084639
:102AB000006820F00400086000BFA068A8B1FFF71C
:102AC0008BFC054609E0FFF787FC401B41F288318B
:102AD000884202D9032077E626E03848683000684B
:102AE000C0F340000028EED013E0FFF775FC054668
:102AF00008E0FFF771FC401B41F28831884201D9A0
:102B0000032061E62D4868300068C0F340000028CB
:102B1000EFD1012F07D129483830006820F08050CC
:102B200026493831086000BFA069002845D02348F5
:102B3000006800F00C0008285DD0A069022845D18B
:102B400000201F490866FFF747FC054606E0FFF72F
:102B500043FC401B022801D9032035E617480838FA
:102B60000068C0F340600028F1D1D4E907010843B0
:102B7000616A40EA81110122A06AC2EB500041EA79
:102B800000412C20005D41EA00600C49091F0860EB
:102B900001200B490866FFF71FFC054606E0FFF71A
:102BA0001BFC401B022801D903200DE6034808380E
:102BB0000068C0F340600028F1D049E008380240C6
:102BC00000004742800E474200700040002021492B
:102BD0000866FFF701FC054606E0FFF7FDFB401B1A
:102BE000022801D90320EFE51B480068C0F34060CC
:102BF0000028F2D12CE0A069012800D1E4E51648B4
:102C0000001D0668A069012820D006F48001E06953
:102C100081421BD106F03F01206A814216D147F65E
:102C2000C0703040616AB0EB811F0FD106F44031B3
:102C30000122A06AC2EB5000B1EB004F06D106F0B2
:102C400070612C20005DB1EB006F01D00120BBE56D
:102C50000020B9E5000047420038024070B5044644
:102C60000E4615460CB9012070BD94F8490028B9EC
:102C7000002084F84800204600F01CF804F1080108
:102C80002068FEF761FF3146A2682068FEF78AFFE0
:102C90002946236BD4E90102FEF732FFA1682068C0
:102CA00050F8210040F00100A268216841F822009C
:102CB0000020D9E710B586B0044600BF0020009080
:102CC0002248006840F0010020490860084600687A
:102CD00000F00100009000BF00BF00BF0020009086
:102CE0001A480838006840F0080018490839086098
:102CF0000846006800F00800009000BF00BF00BF59
:102D0000002000900846006840F010000860084667
:102D1000006800F01000009000BF00BF4CF203708C
:102D200001900220029001200390022004900C20C8
:102D3000059001A90648FFF72FFA4FF68070019021
:102D400001A90448FFF728FA06B010BD3838024040
:102D5000000C02400010024070B504462546681E73
:102D6000B0F1807F01D301200FE0681E4FF0E02119
:102D700048610F214FF0FF3000F0ACFE00204FF013
:102D8000E021886107200861002070BD704770470E
:102D900010B504460CB9012010BD94F83D0028B9C7
:102DA000002084F83C00204600F026F8022084F839
:102DB0003D00211D206800F0FDFB012084F8460045
:102DC00000BF84F83E0001213F20015540200155FD
:102DD0004120015500BF00BF012084F8420043207C
:102DE0000155442001554520015500BF012084F8BC
:102DF0003D000020D0E7000038B504460F492068A8
:102E0000884219D100BF00BF002000900C48006824
:102E100040F010000A4908600846006800F0100001
:102E2000009000BF00BF00BF032201213620FFF742
:102E300034FB3620FFF721FB38BD000000100040B6
:102E400040380240014691F83D00012801D00120A0
:102E50007047022081F83D000868C06840F001001A
:102E60000B68D8601A4B086898421BD00868B0F10C
:102E7000804F17D0174B0868984213D0164B08683C
:102E800098420FD0154B086898420BD0144B086835
:102E9000984207D0134B0868984203D0124B086839
:102EA00098420CD10868806800F00702062A0CD00E
:102EB0000868006840F001000B68186005E00868C9
:102EC000006840F001000B6818600020C0E70000B7
:102ED000000001400004004000080040000C0040D9
:102EE000000401400040014000180040704710B548
:102EF000044620680069C0F34000D8B12068C0686B
:102F0000C0F34000B0B16FF00200216808610120F9
:102F100020772068806900F0030018B12046FFF791
:102F2000E5FF05E0204600F0ADF8204600F0ABF8E4
:102F30000020207720680069C0F38000D8B12068A5
:102F4000C068C0F38000B0B16FF004002168086170
:102F5000022020772068806900F4407018B1204674
:102F6000FFF7C4FF05E0204600F08CF8204600F093
:102F70008AF80020207720680069C0F3C000D8B12B
:102F80002068C068C0F3C000B0B16FF008002168CD
:102F90000861042020772068C06900F0030018B1A0
:102FA0002046FFF7A3FF05E0204600F06BF820461F
:102FB00000F069F80020207720680069C0F3001055
:102FC000D8B12068C068C0F30010B0B16FF0100035
:102FD00021680861082020772068C06900F44070EB
:102FE00018B12046FFF782FF05E0204600F04AF8BE
:102FF000204600F048F8002020772068006900F0A3
:10300000010058B12068C06800F0010030B16FF0D5
:10301000010021680861204600F036F82068006948
:10302000C0F3C01058B12068C068C0F3C01030B100
:103030006FF08000216808612046FFF7A7FE206836
:103040000069C0F3801058B12068C068C0F38010D8
:1030500030B16FF0400021680861204600F02EF882
:1030600020680069C0F3401058B12068C068C0F300
:10307000401030B16FF02000216808612046FFF752
:1030800086FE10BD7047704710B50446054884425F
:1030900007D10548017805A0FDF794F90020024901
:1030A000087010BD586E00203C0000206672616DF3
:1030B000653A25646670730D0A000000704770471A
:1030C000704700002DE9F84F044620680568206825
:1030D000C668206847694FF00009CA4605F00F0925
:1030E000B9F1000F0AD105F0200038B106F0200038
:1030F00020B1204600F0FFFABDE8F88FB9F1000FCB
:1031000072D007F0010018B906F4907000286BD057
:1031100005F0010030B106F4807018B1206C40F069
:103120000100206405F0040030B107F0010018B17F
:10313000206C40F00200206405F0020030B107F07E
:10314000010018B1206C40F00400206405F0080074
:1031500048B106F0200010B907F0010018B1206C4A
:1031600040F008002064206C70B305F0200028B106
:1031700006F0200010B1204600F0BDFA206840693A
:10318000C0F3801A206C00F0080010B9BAF1000FEB
:1031900023D0204600F084FA2068406900F0400007
:1031A000402816D12068406920F04000216848611D
:1031B000A06B50B15648A16B0865A06BFEF7F6FEF8
:1031C00010B1A06B016D88470CE02046FFF778FF37
:1031D00008E02046FFF774FF04E02046FFF770FF89
:1031E0000020206488E7FFE7206B012879D105F0F3
:1031F0001000002875D006F01000002871D000BF24
:1032000000200090206800680090206840680090CE
:1032100000BF00BF2068406900F04000402839D15D
:10322000A06B006840681FFA80F8B8F1000F30D03A
:10323000A08D40452DDDA4F82E80A06BC069B0F5AF
:10324000807F1FD02068C06820F480702168C8602B
:103250002068406920F001002168486120684069C9
:1032600020F0400021684861202084F83E000020C2
:1032700020632068C06820F010002168C860A06B3F
:10328000FEF73FFEA08DE28D801A81B22046FFF747
:1032900016FF31E7A08DE18D401A1FFA80F8E08D0E
:1032A000E8B1B8F1000F1AD02068C06820F490701F
:1032B0002168C8602068406920F0010021684861E9
:1032C000202084F83E00002020632068C06820F0A1
:1032D00010002168C86041462046FFF7F0FE0BE76A
:1032E000FFE705F0800030B106F0800018B12046FD
:1032F00000F099FB00E705F0400030B106F0400017
:1033000018B1204600F0E7F9F6E600BFF4E6000049
:103310008D36000810B504460CB9012010BDA06917
:1033200000B100E000BF94F83D0028B9002084F807
:103330003C00204600F028F8242084F83D00206856
:10334000C06820F400502168C860204600F032FABE
:103350002068006920F49040216808612068406975
:1033600020F02A00216848612068C06840F40050BD
:103370002168C86000202064202084F83D0084F883
:103380003E000020CAE7000010B586B004462E4972
:103390002068884255D100BF00BF002000902B4814
:1033A000006840F01000294908600846006800F0F5
:1033B0001000009000BF00BF00BF00BF00BF002092
:1033C000009022481438006840F001001F49143969
:1033D00008600846006800F00100009000BF00BFD0
:1033E00000BF00BF00BF002000900846006840F00A
:1033F000010008600846006800F00100009000BF6E
:1034000000BF00BF481501900220029001200390E8
:10341000022004900720059001A90D48FEF7BCFE8C
:103420004FF4806001900720059001A90848FEF73D
:10343000B3FE2520FFF721F8032211462520FFF7D0
:103440002CF806B010BD00000010014044380240C6
:103450000000024070B504460D46164694F83E0042
:10346000202816D105B10EB9012070BD00BF94F817
:103470003C00012801D10220F7E7012084F83C003C
:1034800000BF0020206332462946204600F0A8FAFB
:10349000EBE70220E9E7000010B504462049206868
:1034A00088423BD11F48008800F4004088BB1D487B
:1034B000008800F4804070B11B4800780A2803D0CF
:1034C00000201849088024E01648008840F4004095
:1034D000144908801DE0144800780D2806D11148D1
:1034E000008840F480400F49088012E00E480078C0
:1034F0000C490988C1F30D010C4A50540948008851
:10350000401C0849088008460088C72801DD0020C3
:103510000880012204490648FFF79CFF10BD000007
:10352000001001402000002022000020EC6C002050
:10353000B46D0020704700BFFEE700BFFEE7704794
:103540007047704710B5FEF74DFF10BD0348006887
:1035500040F47000014908607047000088ED00E009
:1035600010B50E480068C06800F0010078B10C4941
:1035700008698047002009490968486200BF642043
:1035800006490968C86264210448C16000BF6FF041
:10359000010002490968086110BD0000906F002019
:1035A0000001002010B50248FFF7A1FC10BD00008B
:1035B000586E002010B50268294B98420ED0B0F129
:1035C000804F0BD0274B984208D0274B984205D00C
:1035D000264B984202D0264B984203D122F070022B
:1035E0004B681A431E4B984220D0B0F1804F1DD03B
:1035F0001C4B98421AD01C4B984217D01B4B984238
:1036000014D01B4B984211D01A4B98420ED01A4B33
:1036100098420BD0194B984208D0194B984205D0CC
:10362000184B984202D0184B984203D122F44072B2
:10363000CB681A4322F080034C6943EA040202601B
:103640008B68C3620B688362054B984202D0084BBB
:10365000984201D10B6903630123436110BD00004F
:10366000000001400004004000080040000C004041
:103670000004014000400140004401400048014076
:1036800000180040001C00400020004070B50546B6
:10369000AC6B0020E085E0842046FFF711FD70BD93
:1036A0000168C96821F490710268D16001684969B4
:1036B00021F0010102685161016B012905D1016806
:1036C000C96821F010010268D160202180F83E1005
:1036D00000210163704710B504462068C06820F0DF
:1036E00040002168C860202084F83D002046FFF794
:1036F00021FF002010BD70B5044694F83E0022283A
:1037000056D1A068B0F5805F0CD1206950B9002572
:10371000A66A20684068C0F308003080A06A801C58
:10372000A06215E0A56A0026A068B0F5805F03D00E
:10373000A06828B9206918B920684068287004E09A
:103740002068406800F07F002870A06A401CA062DA
:10375000E08D401E80B2E08540BB2068C06820F04C
:1037600020002168C8602068C06820F4807021684B
:10377000C8602068406920F001002168486120206D
:1037800084F83E00206B01280AD12068C06820F030
:1037900010002168C860A18D2046FFF790FC02E070
:1037A0002046FFF779FE0020206370BD0020FCE773
:1037B0000220FAE72DE9F84F04462068006920F45A
:1037C0004050E1680843216808612169A068084306
:1037D00061690843E169084300902068C06849F2C4
:1037E0000C618843009908432168C86020684069DB
:1037F00020F44070A1690843216848617649206837
:10380000884203D075492068884203D1FEF770FFD3
:10381000814602E0FEF75CFF8146E069B0F5004FAB
:103820006CD102206168A0FB015003461920A9FB5E
:10383000007001462A463846FCF74DFD6421B0FB76
:10384000F1F04FEA001A02206168A0FB01510B461B
:103850001920A9FB00712A463846FCF73CFD834637
:1038600002206168A0FB015003461920A9FB0071EA
:103870002A463846FCF72FFD6421B0FBF1F000EB3F
:10388000C00101EB0010ABEB8000322101EBC00066
:103890006421B0FBF1F000F0F8000AEB400A0220CE
:1038A0006168A0FB015003461920A9FB0070014686
:1038B0002A463846FCF70FFD834602206168A0FBCC
:1038C000015003461920A9FB00712A463846FCF72F
:1038D00002FD6421B0FBF1F000EBC00101EB001030
:1038E000ABEB8000322101EBC0006421B0FBF1F0B2
:1038F00000F007005044216888606AE00420616895
:10390000A0FB015003461920A9FB007001462A467E
:103910003846FCF7E0FC824604206168A0FB0150B9
:1039200003461920A9FB007001462A463846FCF7D9
:10393000D2FC6421B0FBF1F000EBC00101EB001000
:10394000AAEB8000322101EB00106421B0FBF1F002
:1039500000F0F00A04206168A0FB01700346192002
:10396000A9FB00513A462846FCF7B5FC6421B0FBA0
:10397000F1F00AEB001A04206168A0FB01510B462C
:103980001920A9FB00712A463846FCF7A4FC83469F
:1039900004206168A0FB015003461920A9FB0070B8
:1039A00001462A463846FCF796FC6421B0FBF1F04C
:1039B00000EBC00101EB0010ABEB8000322101EB0A
:1039C00000106421B0FBF1F000F00F0050442168BA
:1039D0008860BDE8F88F000000100140001401402D
:1039E00010B5034699629A85DA8500201864222072
:1039F00083F83E0000BF002083F83C0000BF186839
:103A0000C06840F480701C68E0601868406940F04D
:103A100001001C6860611868C06840F020001C68E4
:103A2000E060002010BD014691F83D00212828D11A
:103A30008868B0F5805F0BD1086948B90A6A1088B8
:103A4000C0F308000B685860086A801C086205E033
:103A50000B6A581C086218780B685860C88C401EA6
:103A600080B2C88458B90868C06820F080000B682C
:103A7000D8600868C06840F040000B68D86000203B
:103A800070470220FCE7000010B50248FFF71AFB60
:103A900010BD0000B46D002000BFFEE74100080229
:103AA00018BF04200A0E18BF40F001004FF07F42FB
:103AB00032EA010108BF40F00200012808BF0520DA
:103AC0007047000002480068C0F302207047000001
:103AD0000CED00E010B5002804DB0A07130E054AC0
:103AE000135406E00A07140E034A00F00F031B1FCD
:103AF000D45410BD00E400E018ED00E010B510EE65
:103B0000104A4FF019406849002200EB44002DEDA7
:103B1000028B884257D8DFED650A14F0004F60EE43
:103B2000200A14BFBEEE001AB6EE001A71EE200A8B
:103B3000FDEEE00A10EE900A00EE900AF8EEE00AC0
:103B40009FED5B1A00EEC10A9FED5A1A00EEC10A02
:103B5000DFED590A9FED591A00EE201ADFED580AE1
:103B600040EE010A9FED571A574B00F0030100EE9B
:103B7000201A21EE000A7B4403EB8103D3ED000AF7
:103B8000524B7B4403EB810393ED001A504B41EE03
:103B9000000A7B4403EB8101801091ED000A70EE76
:103BA000800AEABB00EE100AB8EEC01ADFED491A2F
:103BB0009FED490ABDEC028B01EE210ABCEEC00A62
:103BC00020EE200A10BD4FF0FF40A0431BD04FF065
:103BD000CE40B0EB440F82BFB7EE000ABDEC028BC3
:103BE00010BD3E48B0EB440F28BF012293D2022003
:103BF000FCF712FE14F0004F15D0BDEC028BBDE8AF
:103C0000104000F07BB814F5000F02BF9FED340A9E
:103C1000BDEC028B10BDBDEC028BBDE8104000E096
:103C200007E000F05FB8BDEC028BBDE8104000F08B
:103C30005DB800EBD07359104FF07E5202EBC151CA
:103C400000EE101AA0EB630002EBC05060EE200AF9
:103C500000EE100A20EE208A18EE100A88B118EE45
:103C6000100AB0F1FF4F15D018EE100AFFF716FF3B
:103C7000042808BF00F042F8B0EE480ABDEC028B01
:103C800010BD0220FCF7C8FDBDEC028BBDE8104062
:103C900000F034B80220FCF7BFFDBDEC028BBDE89C
:103CA000104000F023B800000000501E3BAAB840AE
:103CB0000070313EF4FD053712BB2A3D12BB2A3E8F
:103CC000FFFFFF3EFFFF7F3FA64C0100AA4C010013
:103CD0007A4C01000000004B00007E4E0000A085E1
:103CE0000000000030EE000A704700009FED020A5D
:103CF00020EE000A70470000000000709FED020AED
:103D000020EE000A704700000000001010B5416965
:103D1000044688472069A04200D1002010BD000061
:103D20002DE9F04F002699B00F4605463446B046BF
:103D30004CE0A868C4EBC4038946426802EB8302E6
:103D40000E92806810AA00EBC40A2C480D9251F81C
:103D5000082F006A120A62F31F200190D1F804B004
:103D60001C2105A8FCF728FDD9F81800006800F010
:103D700097FA0590D9F81800806806905FEA0A0063
:103D800009D0C0F80080D9F80010416029B14988F5
:103D900019B1012102E0404603E00021016001B9B0
:103DA00000200790D9F818001C2205A94068099046
:103DB0000198CDE90A0B0D98FCF7CCFC1C2210A948
:103DC0000E98FCF7C7FC761CB6B2641C0DB12888AF
:103DD00000E00020A04205D9686818B150F824100E
:103DE0000029A6D11EB1A8684068386001E0C7F874
:103DF000008019B03046BDE8F08F0000A8860108A9
:103E00000021C0F34342042A01D0082A06D1C0F39E
:103E1000C612C0F34150C24001219140084670478C
:103E200030380A2801D20120704700207047000076
:103E300070B505460C4648886988884202D9AAB1FF
:103E4000002070BD92B100260CE000BF6168C6EB97
:103E5000C6006A6801EB800102EB80001C22FCF7BF
:103E600079FC761C6088B042F0D801E06068686038
:103E70006088688020882880012070BD30B500B33C
:103E8000F9B1F2B15268E2B10F4C1368A34203D00A
:103E90000260012913D014E00023121D07E000BFC7
:103EA00052F82350A54204D040F823505B1C8B42AB
:103EB000F6D38B4205D152F82300A04201D1012054
:103EC00030BD002030BD0000DECAFAA170B50D463D
:103ED000060014461AD0CCB1104600F0DFFA00B14B
:103EE0006088A84212D10023042109E0C3EBC30279
:103EF000606801EB8202805820B146F823005B1C09
:103F0000AB42F3D3AB4201D1012070BD002070BDA4
:103F10000349884201D1012070470020704700000A
:103F2000DECAFAA12DE9FE4F92468946040003D06D
:103F3000208E20B1656B03E00020BDE8FE8F0025D8
:103F4000002060832083207CC043800702D0302281
:103F50001121DCE0B9F1000F61D0D5B32888C0B3DE
:103F6000D9F818000026D0F8008056E0A86800684C
:103F700000EB0610019052D058B3C6EBC600029079
:103F800009EB80000121009000F092FADBF8183074
:103F9000596888421AD80098DBF80C208069D768E5
:103FA000D0F80CC0674511D19768D0F808C06745B4
:103FB0000CD152684068824208D1186800F061F95B
:103FC0000746584604F02EF8874203D218221221E1
:103FD0009DE024E0DBF81800006800F061F9029928
:103FE00020F07E4259F8210020F07E40824201D02C
:103FF0001922ECE70098406888B100988069006851
:1040000078B14146404500D208468046DDE90010BF
:104010005A4600F08FF8761C2DB1288804E017224C
:10402000D5E72122D3E70020B04206D9686820B145
:1040300050F826B0BBF1000F98D1BAF1000F74D040
:10404000208E012806D9656B0C3503D0288808B16D
:10405000002658E0182259E0A868006800EB061B0B
:104060003BD0BBF1000F38D0C6EBC60001900AEB85
:1040700080000121009000F01BFAD9F8183059682F
:104080008842E7D80098D9F80C208069D768D0F822
:104090000CC06745DED19768D0F808C06745D9D114
:1040A000526840688242D5D1186800F0EAF80746A5
:1040B000484603F0B7FF8742CCD3D9F81800006810
:1040C00000F0EEF820F07E4201985AF8200020F02F
:1040D0007E40824203D0192218E0172216E0009891
:1040E00040680028F9D000988069006868B14146AE
:1040F000404500D2084680464A465846009900F09E
:1041000019F8761C3DB1288806E0212213212046AB
:1041100000F01EFE10E70020B04206D9686820B10A
:1041200050F82690B9F1000F96D1A4F818804FF0FE
:10413000010002E770B504460E461546104603F02E
:1041400071FF0146A060B06900684843E060716893
:104150006160726810442060A8690268920007D408
:10416000D0E90223D21A11448160A9696068C8604D
:1041700070BD70B50646002521E0B068006800EB10
:10418000051488690268920005D58168A268606894
:104190000AF072F808E0D0E90223D21A63681A44E0
:1041A000826089696068C860D4E901010844606080
:1041B0002168884201D3E068081A6D1C60600EB166
:1041C000308800E00020A84206D97068002803D09B
:1041D00050F825100029D0D170BD2DE9F0410646D8
:1041E000002529E0B1688369096801EB05141968A5
:1041F0008900D4E901120DD598680AF03DF8D4E998
:104200000101084460602168884201D3E068081A0F
:10421000606010E00A44626021688A4201D3E2686B
:104220008A1A62608169D1E90237DB1B1A448A600D
:1042300080696168C1606D1C0EB1308800E00020AB
:10424000A84206D97068002803D050F8250000283D
:10425000C8D1BDE8F08100BF704770B579B1C0F337
:10426000C6156943C91D21F00704C0F34151CC4074
:10427000FFF7C6FD00FB0540C01DC00870BD002053
:1042800070BD59B1C0F3C6125143C91D21F00701D9
:10429000C0F34150C140C91DC80870470020704795
:1042A00030B54021C0F34342022A19D03A4A20F0E7
:1042B0007E439C1A4D01934263D028DC374AA3EB1E
:1042C000020493425DD018DC402B5BD0403BB3F539
:1042D000802350D0802B3DD0B3F5806F52D134E095
:1042E000C0F3C051C905C0F3C61241EAC21100F0C3
:1042F0007F02114341F4802144E0A4F54074F93C6D
:1043000026D00F2C3AD0AC423CD125493AE0254B7F
:10431000E21A9C4229D00CDC234AA21813D0B2F531
:10432000F83F1FD0214BD2181AD0B2F5607F29D1A7
:1043300012E0A2F54072F93A10D00F2A18D0AA4222
:1043400020D11B491EE01B491CE01449C91F19E07C
:10435000194917E0194915E0194913E0194911E005
:1043600019490FE0184980390CE01549C91D09E0C9
:1043700014490F3106E01149803903E00E490F312D
:1043800000E0114600F080420A4300F00051114362
:1043900000F00060084330BD4004060047040400FC
:1043A0004010040007007E0000F483FF800FFEFF32
:1043B000401084004010820040080400C000040047
:1043C0004004840040088400C000840038B50446DE
:1043D000002221461C4800F0E5F900900098C0B288
:1043E00018B11AA1009800F007F9002116480068DA
:1043F00000F05AFA1C49086000211348006800F0D8
:1044000063FA1A49086000200AE0C0EBC001164AAE
:10441000126802EB81014968154A42F82010401CDD
:104420000128F2DB00200AE0C0EBC0010F4A12684D
:1044300002EB810149680F4A42F82010401C012814
:10444000F2DB002038BD00000002002061695F6ED1
:104450006574776F726B5F6372656174655F616EBF
:10446000645F696E69740000040200200802002085
:10447000F4010020F801002070B514460D460646F0
:1044800000F00CF840B17068C5EBC50110EB81007D
:1044900002D04460012070BD002070BD28B1416889
:1044A00019B1408808B10120704700207047000012
:1044B00010B502002AD0164B1068B3EBC01F03D012
:1044C000144BB3EBC01F01D1012000E000200842D3
:1044D0009069406802D01F3020F01F005369D9B2A4
:1044E000012900D000211C0A07E0012907D09369A7
:1044F00053F821305843491C1AB1234602E00123E6
:10450000F8E700238B42F0DC002800DC002010BD1F
:10451000006000420060000208B509A1096800912E
:1045200048B101789DF80020914204D104226946E7
:10453000FCF7E4F808B1002008BD012008BD000028
:104540000384048410B50248FFF740FF10BD00004B
:10455000FC0100202DE9F041066C816B044600252A
:10456000C163CEB1D9B10120626CB0470CE002202A
:10457000626CB047E06BFFF7C9FB07460320626C33
:10458000E16BB0476D1CE763E16B0029EFD106E0FA
:10459000FFF7BCFB6D1CE063E06B0028F8D12846F8
:1045A000BDE8F08103460020996B002908D0CB605C
:1045B0000A69401C8A4203D0002A01D01146F6E75E
:1045C00070472DE9F041846B002594B10126002746
:1045D0002079C00707D0216A204611B188473046AC
:1045E00000E0384605442069A04202D008B10446E4
:1045F000EEE72846BDE8F08100BFFEE72DE9FF4F5A
:104600002DED040BC0EE011A9DED132ADDED122AEB
:10461000119B80EE810A11EE904AC4F3C754C4F195
:104620007E0510EE104AC4F3C754C4F17E04A542BF
:1046300001DA2E4600E026461F361F2E04DAA54278
:1046400000DA2C461F3400E01F24A61E012707FABB
:1046500006F501EE105AF0EE000A5B4221EEA03A98
:10466000B8EEC11ADDF81CC04FEA9C0823EE011A0F
:10467000BDEEC11A11EE106A20EE201A00EE905A1B
:10468000F8EEE00A61EE200AB8EEE21AFDEEE00A6A
:1046900010EE905A00EE903AA4F1090307FA03FCD9
:1046A000F8EEE00A0A3CA74061EEA00A40EE410A9B
:1046B000B8EEC20A70EE800A00EE10CAB8EEC00A68
:1046C00020EE800ABDEEC00A10EE10CA0CEB070403
:1046D000641E36E051F804AB52F804EB4FF0FF2CA7
:1046E0000CEA0A290AF0FF2B0CEA0E2C0EF0FF2A26
:1046F00036FB094735FB0C771F4107F3070700F826
:10470000017B864636FB0B4035FB0A00184100F35F
:1047100007078EF800700EF1010036FB194735FBD4
:104720001C771F4107F3070700F8017B36FB1B4C82
:1047300035FB1AC71F4107F3070700F8017BA8F1F3
:104740000108B8F1000FC5D1079F07F0030C11E075
:1047500011F9017B3F0236FB074712F9018B4FEA43
:10476000082835FB08771F4107F3070700F8017B8E
:10477000ACF1010CBCF1000FEAD108B0BDE8F08F3C
:104780003EB504460D46002005210123044ACDE92B
:1047900000102946204600F0A1F902903EBD00001D
:1047A00014440020F0B58FB004460E461746002191
:1047B0002046FFF7E5FF0E900E98C0B210B10E989C
:1047C0000FB0F0BD684600F031F828B9206800F05D
:1047D00045F80E900E98F3E7002507E056F82520DF
:1047E000294603A8FFF748FE681C85B21EB1BDF834
:1047F0000E00A842F2DC002507E057F825202946E4
:1048000001A8FFF739FE681C85B21FB1BDF806008C
:10481000A842F2DC6946206800F027F818B9206841
:1048200000F01CF80E900E98CAE700001FB5044671
:1048300014B9002004B010BD074903C9CDE9020135
:104840000549083103C9CDE9000102AA694620469D
:1048500000F0D8F8EEE70000685A010838B50446C1
:10486000204600F089F9009038BD2DE9F041064658
:104870000F463946304600F08DF90546012415B93A
:104880000020BDE8F0813946284607F0CFFF0440FC
:104890003946284607F0A0FB0440304600F006FAEF
:1048A00004402046EDE7000070B504460D4614B9FB
:1048B000034C044820602946204600F0EDF870BD06
:1048C000144400200001C0A170B504460D4614B97F
:1048D000034C044820602946204600F03FFA70BD92
:1048E000144400200001C0A170B504460D461646D0
:1048F00032462946204600F001FA70BDF0B500248A
:10490000059F0460446084600D6926466D4221E085
:10491000002D06DAD0F800C00CF1010CC0F800C080
:1049200014E0D2F808C0D7F808E0ACEB050CF44569
:1049300006DAD0F808C00CF1010CC0F808C005E098
:10494000D0F804C00CF1010CC0F804C0D1F808C0C4
:10495000761C6544D3F808C0B445D9DC0568C56049
:10496000456805618568C0E90554C46104624C6905
:104970006442002515E0002C03DA8669761C866106
:104980000CE05668D7F804C0361B664503DA066AA1
:10499000761C066202E0C669761CC661CE686D1C94
:1049A00034445E68AE42E6DCF0BDD0E90621012366
:1049B00022B149B18384521E826109E021B10022F3
:1049C0008284491EC16103E08384016A491E016239
:1049D000C168016001694160416981607047016897
:1049E000012219B1C284491E01607047416821B19A
:1049F000828CC284491E41607047C2848168491E0E
:104A00008160704710B570B169B162B1074C046044
:104A1000D1E90041C0E90141D2E90012C0E9031225
:104A20000123184610BD002010BD0000DECAFAA107
:104A3000016810B1024A8A4300D00020704700008C
:104A40000001C0A130B44AB140B139B1074C13687C
:104A5000A34206D130BC0C32FFF738BA30BC00207C
:104A6000704730BC1C32FFF709BA0000DECAFAA159
:104A700030B44AB140B139B1064C1368A34206D1F3
:104A800030BC121DFFF722BA30BC0020704730BC8A
:104A9000FFF7F4B9DECAFAA1F8B50E46FFF7C8FF72
:104AA00004000AD000270097208E00B1606B694691
:104AB000FFF736F9050006D00BE01022114600F092
:104AC00047F90020F8BD18221121204600F040F9D6
:104AD000009706B135800098F8BD00002DE9F04F31
:104AE00089B00500DDE912104FF0000A564663F365
:104AF0000706CDE9011361F30F261D4F9146544679
:104B000060F31746834618D0C5F8009000F0E2FC29
:104B1000B8B1B846BF8AC6F30721F0B2002200F050
:104B2000FDFA0646C7F30721F8B2002200F0F6FAB4
:104B3000864208D0D8F804400EE0F86909B0BDE814
:104B4000F08F3C6808E00BA0006800906846FFF713
:104B5000E3FC18B9D8F80840C5F800A0DDE9011059
:104B60005A4600F0DBFAC9F808002046E6E70000E4
:104B7000A88601080384048410B5FFF759FF20B10B
:104B8000BDE810400C3000F09FBC0148806910BDAA
:104B9000A88601082DE9F04F91B00C46FFF748FFB9
:104BA000050013D0B4B13DA12068FFF7B1F90600AC
:104BB0004FF0000B11D020680190D4E90301CDE93A
:104BC0000401D4E90101CDE9020143E0002011B064
:104BD000BDE8F08F112210215CE001212046D4F8BD
:104BE00004A0FFF765FC804604F11C00D4F8209077
:104BF00001211090FFF75CFC07461422294907A801
:104C0000FBF7A8FD0120B8F1000F02D0ADF822009B
:104C100002E0ADF822B0002409941FB1ADF82A00DB
:104C2000109802E0ADF82AB000200B90B9F1000F07
:104C300002D10FB1132206E0BAF1000F05D1B8F18D
:104C4000000F02D01222102123E0142207A901A88C
:104C5000FBF780FD14492868884212D186F00102D2
:104C6000144602A905F12000FFF7E2F868B12246D8
:104C700004A905F12800FFF7DBF840B12846FFF74B
:104C800091FC032028612846A1E7122200E01322AC
:104C90001621284600F05CF898E70000696E6974F8
:104CA00000000000FC8601080001C0A170B5FFF7FC
:104CB000BFFE002807D0017C890705D410221121EE
:104CC00000F046F8002070BD0B4A0168914211D1F6
:104CD0000546FFF776FC286C60B1AC6B54B1D5E9A2
:104CE00010322146002098472069A04202D008B126
:104CF0000446F4E7012070BD0001C0A170B5134661
:104D00000D46FFF795FE04461A462946FFF70AF9B5
:104D100000281CD0208E08B1656B00E0002501281A
:104D200002D9666B0C360DE000260BE02846FFF733
:104D300020FA2046FFF70EFC3046FFF74EFA608B54
:104D4000401C6083608B218B8842EFD380B270BDA2
:104D5000002802D00C3000F0DDBB7047F8B50E46DD
:104D6000FFF766FE040007D000270097208E012879
:104D700008D9606B0C3006E010221146FFF7E8FFFF
:104D80000020F8BD00206946FEF7CAFF050005D1E6
:104D9000182211212046FFF7DBFF009706B135806E
:104DA0000098F8BD70B504460D460B480068446095
:104DB0000A480068456009480268074801680848D1
:104DC0000068FFF791FD0646012E01D1002070BD5D
:104DD0004FF0FF30FBE70000040200200802002033
:104DE0000002002002460068010A012004E0536826
:104DF000491E53F8213058430029F8D17047024624
:104E00000068010A012004E05368491E53F821306C
:104E100058430029F8D1704702460068010A012072
:104E200004E05368491E53F8213058430029F8D153
:104E3000704710B502680B68120AB2EB132F09D144
:104E40000AE0521E43684C6853F8223054F822405E
:104E5000A34201D0002010BD002AF2D1012010BDD4
:104E60000168090A07E04268491E52F82120012A18
:104E700001D0002070470029F5D1012070472DE9AD
:104E8000FE4FDDE90F84DDF830C094ED001ADDE956
:104E90000D759CED000AD5ED000ADDE911B680EE36
:104EA000012A97F900A098F900909BF900C0C0EE84
:104EB000811A12EE104AC4F3C754C4F17E0511EEF4
:104EC000904AC4F3C754C4F17E04A54201DA2F46C8
:104ED00000E027461F371F2F04DAA54200DA2C46D0
:104EE0001F3400E01F24A71E4FF0010B0BFA07F53B
:104EF00003EE105AF0EE002A4FEA930862EE223ACF
:104F0000B8EEC33A641E23EE833ABDEEC33A13EE05
:104F1000107A21EEA23A02EE905AF8EEE22A63EEFF
:104F2000222AFDEEE22A12EE905A76B303F0030332
:104F30004FF0FF2E012E4FD092F90050A5EB090241
:104F400000EE102AA4F108050BFA05F6B8EEC00A27
:104F5000093C0BFA04F260EE210A00EE10AAB8EE4A
:104F6000C00A42EE400A00EE10CAB8EEC00A70EE67
:104F7000800A00EE106AB8EEC00A20EE800ABDEE8C
:104F8000C00A10EE106A3244ADE0B4EE410AF1EE10
:104F900010FA1AD1E24518D1F4EE410AF1EE10FAF6
:104FA00013D1E14511D100240BE011F9015B12F995
:104FB000016B641C3544A5EB0C0505F3070500F8EF
:104FC000015B9C42F1D3BDE8FE8FCDF800A0CDE996
:104FD000019CFFF713FBF6E791F90060A6EB0A01CD
:104FE00000EE101AA4F108060BFA06F7B8EEC00A94
:104FF000093C0BFA04F160EE020A00EE109AB8EEDA
:10500000C00A41EEC00A00EE10CAB8EEC00A70EE47
:10501000800A00EE107AB8EEC00A20EE800ABDEEDB
:10502000C00A10EE107A394425E052F8044B0EEA1B
:10503000042704F0FF2435FB071C4CFA06FC0CF394
:10504000070C00F801CB35FB041C4CFA06FC0CF3F2
:10505000070C00F801CB35FB1717374107F307079B
:1050600000F8027B35FB1414344104F3070400F804
:10507000014CA8F10108B8F1000FD6D10AE012F9ED
:10508000014B240235FB0414344104F3070400F8F7
:10509000014B5B1E002BF2D195E751F8044B0EEA51
:1050A000042604F0FF2437FB062C4CFA05FC0CF315
:1050B000070C00F801CB37FB042C4CFA05FC0CF371
:1050C000070C00F801CB37FB16262E4106F3070626
:1050D00000F8026B37FB14242C4104F3070400F89A
:1050E000014CA8F10108B8F1000FD6D10AE011F97E
:1050F000014B240237FB04242C4104F3070400F87D
:10510000014B5B1E002BF2D15DE791ED000AD2ED61
:10511000000A30EE200A80ED000A7047000640EADF
:10512000014040EA02207047F0B500241FE000BFB4
:1051300000EB840595ED001A61EE001A81EEA01ACD
:1051400011EE105AC5F3C756C6F17E07C5F3160611
:1051500006F50006002D00DA76421F2F01DD00263D
:105160003746F50123F8147042F82450641C8C4231
:10517000DEDBF0BD2DED068B90ED020AF0EE009A1D
:1051800080EE29AA90ED000A30EE4A0AF0EE402A9D
:1051900090ED030AF0EE009A80EE29AA90ED010A44
:1051A00030EE4A0AB0EE403A90ED020AF0EE009A74
:1051B00080EE29AA90ED000A3AEE000AF0EE403A9D
:1051C00090ED030AF0EE009A80EE29AA90ED010A14
:1051D0003AEE000AB0EE404A91ED020AB0EE00AAA3
:1051E000C0EE0A9A91ED000A30EE690AF0EE404AEC
:1051F00091ED030AB0EE00AAC0EE0A9A91ED010A01
:1052000030EE690AB0EE405AD1ED029AB0EE00AA33
:1052100089EE8A0AD1ED009A30EE290AF0EE405A62
:10522000D1ED039AB0EE00AA89EE8A0AD1ED019A77
:1052300030EE290AB0EE406AF4EEE42AF1EE10FAFC
:1052400002DDB0EE620A01E0B0EE640AF0EE407AF0
:10525000B4EEC53AF1EE10FA02DDB0EE430A01E019
:10526000B0EE450AB0EE408AF4EEE53AF1EE10FAFF
:1052700002D2B0EE630A01E0B0EE650AF0EE408AB9
:10528000B4EEC64AF1EE10FA02D2B0EE440A01E0E2
:10529000B0EE460AB0EE409A78EEE70AF5EEC00AA4
:1052A000F1EE10FA03D29FED170AF0EE400A39EE44
:1052B000481AB5EEC01AF1EE10FA03D29FED110AAA
:1052C000B0EE401A60EE811A33EEE20A74EE439AB1
:1052D00020EE297A35EEE40A76EE459A60EE296AE8
:1052E00037EE260A30EE612AB5EEC02AF1EE10FA4A
:1052F00004DD81EE820ABDEC068B70479FED010A4A
:10530000F9E70000000000002DE9F04F0E460446CA
:105310004968506899464B68456885B0AB4201D0F2
:10532000012700E0002735680423B3EB152F01D2D5
:105330000D6900E00125D2F800C09B46B3EB1C2F9D
:1053400001D2026900E00122954201D0012500E06E
:1053500000258A6883689A4201D0012200E0002279
:10536000C968C0689046814215D1012913D0002038
:10537000824614223B496846FBF7ECF939487168CC
:105380000838D6F800C002684B685846BBEB1C2FA3
:1053900003D2096902E00120EAE701214B430293AD
:1053A0007168D1E9013C03FB0CF3D6F800C0B0EB07
:1053B0001C2F01D2096900E001214B43039371685E
:1053C0000123496804912168B3EB112F05D20FB175
:1053D000002100E0494663685960052127EA05037A
:1053E00025EA070CB1EB122F01D8049E00E000263D
:1053F0000CFB16332668B1EB162F06D8BBEB162F25
:1054000003D209FB03F06368186125EA08003840FD
:10541000029EB1EB122F08FB160301D8049800E09E
:105420000020216805FB00300222B2EB112F03D2CD
:1054300009FB00F16068816028EA0A002840039AAD
:1054400038400AFB1201029A08FB0210216803226D
:10545000B2EB112F03D209FB00F16068C16005B007
:10546000BDE8F08FC0870108F0B503681B0A28E08B
:1054700004685B1EB3EB142F23D20D68B3EB152F1A
:1054800003D24C6854F8236000E001261468B3EBA3
:10549000142F03D2576857F8237000E00127BE424B
:1054A00004D9B3EB152F08D24C6803E0B3EB142FEB
:1054B00003D2546854F8234000E00124456845F8BD
:1054C0002340002BD4D1F0BD00220168027002609D
:1054D000084670470120704710B18269002A00D148
:1054E0000846704710B18269002A00D1084670470B
:1054F00010B1806900B1014609B188687047002089
:10550000704710B1806900B1014609B188687047E1
:1055100000207047037813F0FF0F01D00020704780
:105520000170016862F31F210160012070470000D3
:1055300010B500230D4C236023461B6843EA40133B
:10554000236023461B6843EA8113236023461B68BC
:1055500043EAC213236023461B6843F4804323605D
:1055600023461B6843F00103236010BD0000055073
:105570002DE9F84306460C4615461F46DDF8208007
:1055800000BF002000903148006840F480002F499F
:1055900008600846006800F48000009000BF00BF6B
:1055A00000BF2B482B49886308462949886300BF00
:1055B00008460068006820F0100009680860264866
:1055C000234908604FF00070486000212048816046
:1055D000C160C0F810804FF48051416187610911AA
:1055E000C1614902016204214162012181620021FD
:1055F000C1620163FCF7EEFC1548FCF723FD00BF18
:105600000020134981F8340000BF34B92B463246DC
:1056100012490F48FCF78CFD16E0234632460F492D
:105620000B480095FCF72FFC09480068006840F023
:105630001000074909680860032202213920FCF79D
:105640002CFF3920FCF719FFBDE8F8833038024001
:10565000E06E0020A06E0020286402402800055063
:1056600010B51148114908600020486020210F48FA
:1056700081600021C160016141618161FCF732FB01
:1056800000200949C86009480068C06840F001006E
:1056900006490968C86005480068006840F4804011
:1056A00002490968086010BD00000550A06E002086
:1056B0002DE9F04106460F4614461D4600F026F837
:1056C0004FF6FF7002F0A4FD2B46224639463046C5
:1056D00005F0A2FF2946204608F016F800210846EA
:1056E00005F00AFF06F06EF90648006840F0010078
:1056F000044908600448006840F00100024908605D
:10570000BDE8F08128640240000005500A480068A6
:1057100020F001000849086000BF0748006800F059
:1057200001000028F9D105480068006820F0010058
:10573000024909680860704700000550E06E0020CB
:1057400001490860704700001800002010B50446A9
:105750004FF47A7104FB01F000F002F810BD000074
:1057600070B5034600224FF0E02675690D4E36688D
:1057700003FB06F44FF0E026B16910E04FF0E0269D
:10578000B06988420BD0884202D20E1A324402E03D
:105790002E1A0E4432440146A24200D300E0EDE747
:1057A00000BF70BD180000200A48006810B10A4808
:1057B000006801E009480068094908600548006878
:1057C00008B9012000E000200249086001200549D5
:1057D000087070471000002008000020040000201E
:1057E0000C000020000000202DE9FE4F0024C8E03E
:1057F00004EB8400664901EB800090ED020AF0EEB4
:10580000000A80EE201A04EB840001EB800090ED8A
:10581000000A70EE410A5F48008800EE100AB8EEF8
:10582000400A20EE800ABDEEC00A10EE109A04EB8A
:10583000840001EB800090ED030AF0EE000A80EE98
:10584000201A04EB840001EB800090ED010A70EE59
:10585000410A5048408800EE100AB8EE400A20EE97
:10586000800ABDEEC00A10EE10AA04EB840001EB22
:105870008000D0ED020AB0EE001A80EE810A04EB3F
:10588000840001EB8000D0ED000A70EE200A414850
:10589000008800EE100AB8EE400A20EE800ABDEE45
:1058A000C00A10EE10BA04EB840001EB8000D0EDCA
:1058B000030AB0EE001A80EE810A04EB840001EBCB
:1058C0008000D0ED010A70EE200A3248408800EED8
:1058D000100AB8EE400A20EE800ABDEEC00A8DED37
:1058E000020AB9F1000F01DA4FF00009BAF1000F16
:1058F00001DA4FF0000A27480088584503DC2548A4
:105900000088A0F1010B234841880298814203DC02
:1059100020484088401E02904FF0FF352EE009EBF2
:10592000050001900198002801DA002001900AEB9F
:105930000506002E00DA0026ABEB050715480088A7
:10594000B84202DC13480088471E0298A0EB050805
:1059500010484088404503DC0E484088A0F101080B
:105960004FF478401FFA88F3BAB2B1B20090DDF874
:1059700004C01FFA8CF002F081FD6D1C012DCEDDFC
:10598000641C054800688442FFF632AFBDE8FE8F14
:10599000BCE50020486E00200C0200202DE9F04FED
:1059A0002DED068B85B002908069018809B14668AB
:1059B00000E00026012902D940680C3000E00020F8
:1059C000406800B1006883460020014608E0926903
:1059D0001268C2F34342012A00D002221043491C3C
:1059E0000EB1328800E000228A4205D972681AB1ED
:1059F00052F82120002AEAD1DBF818100A688968D9
:105A0000C2F343430091012B11D0012850D000BFB5
:105A1000DBF800005FEA00094FD0D9F80400E0B3DA
:105A2000B9F80210C9B3006890ED008A47E0012878
:105A300002D080073CD4EBE700252BE00298616997
:105A4000E368C06951F82020DBF80C1053F82030CF
:105A500051F8200002FB03F902FB00FAA06903C819
:105A6000FEF7FBFBB0FBF9F209FB1201401AA1693A
:105A7000009F8C6804EB000806E04A463946204641
:105A800008F0FAFB57444C444445F6D300986D1C8B
:105A90004844009016B1308801E00EE00020A84292
:105AA00006D97068002803D050F82540002CC5D1D5
:105AB00005B0BDEC068BBDE8F08FB7EE008AC2F3EF
:105AC000C0504FF0000AF7EE009AF6EE008ADFEDC4
:105AD000D8AA039099E141690298019AB0EE699AB7
